:060000000A128A11E12F33
:100BB200073400340B3400340D3400340E34003466
:100BC2007E088A007F0882000A128A11E1250A1231
:100BD2008A118000840A04087D0603190034FF0A82
:100BE2000319FE0AE52D3F340034063400345B3429
:100BF20000344F340034663400346D3400347D34B4
:100C02000034073400347F34003467340034F40194
:100C1200F501701C0D2E0E2E142E7208F407031807
:100C2200F50A7308F50701300310F20DF30DFF3ECC
:100C3200031D152E01300310F10CF00CFF3E031DB5
:100C42001C2E70087104031D272E282E0A2E7508EB
:100C5200F1007408F0000800013083120313A200AF
:100C62000030A300A001A101512E7708F1007608FF
:100C7200F000831203132308F3002208F2000A1281
:100C82008A1108260A128A11710883120313A3001B
:100C92007008A2000130A0070318A10A0030A107C2
:100CA2002108803AFA007908803A7A02031D5B2E05
:100CB20078082002031C5E2E5F2E362E8312031349
:100CC2002308F7002208F600080083120313B1017B
:100CD200AF1F6C2E6D2E742EAE09AF09AE0A03192A
:100CE200AF0AB101B10AAD1F772E782E7D2EAC0965
:100CF200AD09AC0A0319AD0A2C082D040319822E82
:100D0200832EB22EB001B00A912E01300310AC0D29
:100D1200AD0DFF3E031D872E0130FC007C08B0079D
:100D2200AD1F942E952E862E2D082F02031D9B2E6D
:100D32002C082E02031C9E2E9F2EA52E2C08AE02DE
:100D42002D08031CAF03AF0201300310AD0CAC0C35
:100D5200FF3E031DA62E0130B002031DB12EB22E9E
:100D6200952E31080319B62EB72EBC2EAE09AF0947
:100D7200AE0A0319AF0A2F08AD002E08AC00080016
:100D820083120313A901A51FC72EC82ECF2EA409B3
:100D9200A509A40A0319A50AA901A90AA71FD22E07
:100DA200D32EDC2EA609A709A60A0319A70A013029
:100DB200FB007B08A906AA01AB012408250403193C
:100DC200E32EE42E1B2FA801A80AF22E01300310F5
:100DD200A40DA50DFF3E031DE82E0130FB007B088C
:100DE200A807A51FF52EF62EE72E01300310AA0D37
:100DF200AB0DFF3E031DF72E25082702031D032F0F
:100E020024082602031C062F072F0E2F2408A602F1
:100E12002508031CA703A7022A1401300310A50CFE
:100E2200A40CFF3E031D0F2F0130A802031D1A2F31
:100E32001B2FF62E290803191F2F202F252FAA0951
:100E4200AB09AA0A0319AB0A2B08A5002A08A400B9
:100E52000800831603138601850183120313D2014E
:100E6200D30136308400A030B2000408B30014303D
:100E7200B4003208840083130008B500B20A3308B4
:100E8200840035088000B30AB40B3A2F4A3084003C
:100E92005830B2000408B3000830B40032088400AD
:100EA20083130008B500B20A3308840035088000B5
:100EB200B30AB40B4F2FD401D50183120313D60109
:100EC200D7010A3083120313AC000030AD0057087B
:100ED200F9005608F8000A30F6000030F7000A124E
:100EE2008A112D260A128A11770883120313A5008C
:100EF2007608A4005308A7005208A6000A128A1115
:100F0200C1260A128A11831203132508AF0024088E
:100F1200AE000A128A1166260A128A11831203137C
:100F22002C08B2003207363E840083130008860084
:100F32005608B20032074A3E8400000885001A3083
:100F420083120313B300F730B200B20BA62FB30B18
:100F5200A62FAB2F013083120313D6070318D70A2B
:100F62000030D7075708803AFF0080307F02031D08
:100F7200BC2F04305602031CBF2FC02F622F01303A
:100F820083120313D4070318D50A0030D507550876
:100F9200803AFF0080307F02031DD12F323054028D
:100FA200031CD42FD52F5E2F013083120313D207D7
:100FB2000318D30A0030D3075C2F0A128A110028C3
:100FC2008313B430FD000530FE00F430FF00A03082
:100FD20084000A128A11E5250A128A116030FD0086
:100FE2000530FE00D930FF00583084000A128A1101
:0E0FF200E5250A128A1183010A128A112A2F9C
:08400000FF3FFF3FFF3FFF3FC0
:04400E00F22FFF3F4F
:00000001FF
