:060000000A128A11FC2F18
:100F480003308316031388008601F301F40183122A
:100F58000313081CB02FB12FB62F881CB42FB52F40
:100F6800B62FAB2F0818B92FBA2FC02F8818BD2F4E
:100F7800BE2FC02FF301F40173088600881CC52F0B
:100F8800C62FD62F730A7404031DCB2FCC2FCF2F57
:100F9800F301F401EB2F0130F3070318F40A0030D2
:100FA800F407EB2F081CD92FDA2FEB2F73087404E2
:100FB800031DDF2FE02FE52FFF30F3000030F40092
:100FC800EB2FFF30F3070318F40AFF30F40715304E
:100FD800F2004B30F100BE30F000F00BF12FF10BB6
:100FE800F12FF20BF12F0000AB2F0A128A11002803
:080FF80083010A128A11A42FE3
:08400000FF3FFF3FFF3FFF3FC0
:04400E00F22FFF3F4F
:00000001FF
