:060000000A128A11D92F3B
:100D4400073400340B3400340D3400340E340034D2
:100D54007E088A007F0882000A128A11AA260A12D3
:100D64008A118000840A04087D0603190034FF0AEE
:100D74000319FE0AAE2E3F340034063400345B34CB
:100D840000344F340034663400346D3400347D3420
:100D94000034073400347F3400346734003477344B
:100DA40000347C340034393400345E340034793413
:100DB4000034713400348316031386018501F03046
:100DC400870028308400A030F0000408F1002030AF
:100DD400F2007008840083130008F300F00A71081D
:100DE400840073088000F10AF20BEB2E203084009B
:100DF4005830F0000408F1000830F2007008840054
:100E040083130008F300F00A71088400730880005B
:100E1400F10AF20B002F483084000830FF008001F3
:100E2400840AFF0B112F0E30831203138500013047
:100E34008700071E1E2F1F2F262F0130CE000030E3
:100E4400CF002A088600462F871E292F2A2F312FEC
:100E54000430CE000030CF0030088600462F071F34
:100E6400342F352F3C2F0730CE000030CF0036080A
:100E74008600462F871F3F2F402F462F0F30CE006E
:100E84000030CF004608860002308700071E4B2F33
:100E94004C2F532F0230CE000030CF002C08860098
:100EA400722F871E562F572F5E2F0530CE0000302D
:100EB400CF0032088600722F071F612F622F692F1F
:100EC4000830CE000030CF0038088600722F871F0C
:100ED4006C2F6D2F722FCE01CF0128088600722F40
:100EE40004308700071E772F782F7F2F0330CE0022
:100EF4000030CF002E0886009F2F871E822F832F5D
:100F04008A2F0630CE000030CF00340886009F2F91
:100F1400071F8D2F8E2F952F0930CE000030CF0064
:100F24003A0886009F2F871F982F992F9F2F0E30E6
:100F3400CE000030CF004408860008308700071E2A
:100F4400A42FA52FAC2F0A30CE000030CF003C08D0
:100F54008600CC2F871EAF2FB02FB72F0B30CE00BB
:100F64000030CF003E088600CC2F071FBA2FBB2FBE
:100F7400C22F0C30CE000030CF0040088600CC2FAA
:100F8400871FC52FC62FCC2F0D30CE000030CF00C9
:100F9400420886001A30F100F830F000F00BD02F30
:100FA400F10BD02F0000152F0A128A110028831389
:100FB400C030FD000630FE00BD30FF00A0308400CC
:100FC4000A128A11AE260A128A116030FD00063018
:100FD400FE00A230FF00583084000A128A11AE26A7
:100FE4000A128A11D001D101D201D301D401D50151
:0C0FF400D601D70183010A128A11DD2EFC
:08400000FF3FFF3FFF3FFF3FC0
:04400E00F22FFF3F4F
:00000001FF
